{
  "contractName": "Lottery",
  "abi": [
    {
      "constant": true,
      "inputs": [],
      "name": "_timeLastActivated",
      "outputs": [
        {
          "name": "",
          "type": "uint256"
        }
      ],
      "payable": false,
      "stateMutability": "view",
      "type": "function",
      "signature": "0x4bc84fdd"
    },
    {
      "constant": true,
      "inputs": [
        {
          "name": "",
          "type": "address"
        }
      ],
      "name": "_revealed",
      "outputs": [
        {
          "name": "",
          "type": "bool"
        }
      ],
      "payable": false,
      "stateMutability": "view",
      "type": "function",
      "signature": "0x4d388d06"
    },
    {
      "constant": true,
      "inputs": [],
      "name": "_active",
      "outputs": [
        {
          "name": "",
          "type": "bool"
        }
      ],
      "payable": false,
      "stateMutability": "view",
      "type": "function",
      "signature": "0x4d615d23"
    },
    {
      "constant": true,
      "inputs": [
        {
          "name": "",
          "type": "address"
        }
      ],
      "name": "_commitments",
      "outputs": [
        {
          "name": "",
          "type": "bytes32"
        }
      ],
      "payable": false,
      "stateMutability": "view",
      "type": "function",
      "signature": "0x4dbe3469"
    },
    {
      "constant": true,
      "inputs": [],
      "name": "_lotteryID",
      "outputs": [
        {
          "name": "",
          "type": "uint256"
        }
      ],
      "payable": false,
      "stateMutability": "view",
      "type": "function",
      "signature": "0x5c20c2b9"
    },
    {
      "constant": true,
      "inputs": [
        {
          "name": "",
          "type": "uint256"
        }
      ],
      "name": "_ticketHolders",
      "outputs": [
        {
          "name": "",
          "type": "address"
        }
      ],
      "payable": false,
      "stateMutability": "view",
      "type": "function",
      "signature": "0x5e782ea8"
    },
    {
      "constant": true,
      "inputs": [],
      "name": "_saleTimeout",
      "outputs": [
        {
          "name": "",
          "type": "uint256"
        }
      ],
      "payable": false,
      "stateMutability": "view",
      "type": "function",
      "signature": "0x60e782bb"
    },
    {
      "constant": true,
      "inputs": [
        {
          "name": "",
          "type": "uint256"
        }
      ],
      "name": "_candidates",
      "outputs": [
        {
          "name": "",
          "type": "address"
        }
      ],
      "payable": false,
      "stateMutability": "view",
      "type": "function",
      "signature": "0x648a305a"
    },
    {
      "constant": true,
      "inputs": [],
      "name": "_ticketPrice",
      "outputs": [
        {
          "name": "",
          "type": "uint256"
        }
      ],
      "payable": false,
      "stateMutability": "view",
      "type": "function",
      "signature": "0x7e40be66"
    },
    {
      "constant": true,
      "inputs": [],
      "name": "_ticketsIssued",
      "outputs": [
        {
          "name": "",
          "type": "uint256"
        }
      ],
      "payable": false,
      "stateMutability": "view",
      "type": "function",
      "signature": "0x826dc28f"
    },
    {
      "constant": true,
      "inputs": [],
      "name": "_revealTimeout",
      "outputs": [
        {
          "name": "",
          "type": "uint256"
        }
      ],
      "payable": false,
      "stateMutability": "view",
      "type": "function",
      "signature": "0x83aaec9e"
    },
    {
      "constant": true,
      "inputs": [
        {
          "name": "",
          "type": "address"
        }
      ],
      "name": "_ticketBalances",
      "outputs": [
        {
          "name": "",
          "type": "uint256"
        }
      ],
      "payable": false,
      "stateMutability": "view",
      "type": "function",
      "signature": "0xa8381423"
    },
    {
      "constant": true,
      "inputs": [],
      "name": "_owner",
      "outputs": [
        {
          "name": "",
          "type": "address"
        }
      ],
      "payable": false,
      "stateMutability": "view",
      "type": "function",
      "signature": "0xb2bdfa7b"
    },
    {
      "inputs": [],
      "payable": false,
      "stateMutability": "nonpayable",
      "type": "constructor",
      "signature": "constructor"
    },
    {
      "anonymous": false,
      "inputs": [
        {
          "indexed": false,
          "name": "lotteryID",
          "type": "uint256"
        },
        {
          "indexed": false,
          "name": "ticketPrice",
          "type": "uint256"
        },
        {
          "indexed": false,
          "name": "saleTimeout",
          "type": "uint256"
        },
        {
          "indexed": false,
          "name": "revealTimeout",
          "type": "uint256"
        }
      ],
      "name": "LotteryActivated",
      "type": "event",
      "signature": "0x71c15dd86c9da2e5b88fc823afd1510cc64bc45bb6e0c7f040fd0d4b8a558a4a"
    },
    {
      "anonymous": false,
      "inputs": [
        {
          "indexed": false,
          "name": "lotteryID",
          "type": "uint256"
        },
        {
          "indexed": false,
          "name": "winner",
          "type": "address"
        },
        {
          "indexed": false,
          "name": "prize",
          "type": "uint256"
        },
        {
          "indexed": false,
          "name": "commission",
          "type": "uint256"
        },
        {
          "indexed": false,
          "name": "ticketsIssued",
          "type": "uint256"
        },
        {
          "indexed": false,
          "name": "numCandidates",
          "type": "uint256"
        },
        {
          "indexed": false,
          "name": "duration",
          "type": "uint256"
        }
      ],
      "name": "LotteryWon",
      "type": "event",
      "signature": "0xe41cfd88df8cce8ca96af2f5e1b05d2651619d97b87c3bdaa6fada5a8d5c64ec"
    },
    {
      "constant": false,
      "inputs": [
        {
          "name": "ticketPrice",
          "type": "uint256"
        },
        {
          "name": "salePhaseDuration",
          "type": "uint256"
        },
        {
          "name": "revealPhaseDuration",
          "type": "uint256"
        }
      ],
      "name": "activate",
      "outputs": [],
      "payable": false,
      "stateMutability": "nonpayable",
      "type": "function",
      "signature": "0xd96c5110"
    },
    {
      "constant": false,
      "inputs": [
        {
          "name": "hashedSecret",
          "type": "bytes32"
        }
      ],
      "name": "buyTicket",
      "outputs": [],
      "payable": true,
      "stateMutability": "payable",
      "type": "function",
      "signature": "0xe5423274"
    },
    {
      "constant": false,
      "inputs": [
        {
          "name": "secret",
          "type": "uint256"
        }
      ],
      "name": "reveal",
      "outputs": [],
      "payable": false,
      "stateMutability": "nonpayable",
      "type": "function",
      "signature": "0xc2ca0ac5"
    },
    {
      "constant": false,
      "inputs": [],
      "name": "findWinner",
      "outputs": [],
      "payable": false,
      "stateMutability": "nonpayable",
      "type": "function",
      "signature": "0x8e71decb"
    }
  ],
  "bytecode": "0x608060405234801561001057600080fd5b50336000806101000a81548173ffffffffffffffffffffffffffffffffffffffff021916908373ffffffffffffffffffffffffffffffffffffffff16021790555061127a806100606000396000f3fe60806040526004361061011b576000357c0100000000000000000000000000000000000000000000000000000000900480637e40be66116100b2578063a838142311610081578063a83814231461042c578063b2bdfa7b14610491578063c2ca0ac5146104e8578063d96c511014610523578063e5423274146105725761011b565b80637e40be6614610394578063826dc28f146103bf57806383aaec9e146103ea5780638e71decb146104155761011b565b80635c20c2b9116100ee5780635c20c2b9146102485780635e782ea81461027357806360e782bb146102ee578063648a305a146103195761011b565b80634bc84fdd146101205780634d388d061461014b5780634d615d23146101b45780634dbe3469146101e3575b600080fd5b34801561012c57600080fd5b506101356105a0565b6040518082815260200191505060405180910390f35b34801561015757600080fd5b5061019a6004803603602081101561016e57600080fd5b81019080803573ffffffffffffffffffffffffffffffffffffffff1690602001909291905050506105a6565b604051808215151515815260200191505060405180910390f35b3480156101c057600080fd5b506101c96105c6565b604051808215151515815260200191505060405180910390f35b3480156101ef57600080fd5b506102326004803603602081101561020657600080fd5b81019080803573ffffffffffffffffffffffffffffffffffffffff1690602001909291905050506105d9565b6040518082815260200191505060405180910390f35b34801561025457600080fd5b5061025d6105f1565b6040518082815260200191505060405180910390f35b34801561027f57600080fd5b506102ac6004803603602081101561029657600080fd5b81019080803590602001909291905050506105f7565b604051808273ffffffffffffffffffffffffffffffffffffffff1673ffffffffffffffffffffffffffffffffffffffff16815260200191505060405180910390f35b3480156102fa57600080fd5b50610303610635565b6040518082815260200191505060405180910390f35b34801561032557600080fd5b506103526004803603602081101561033c57600080fd5b810190808035906020019092919050505061063b565b604051808273ffffffffffffffffffffffffffffffffffffffff1673ffffffffffffffffffffffffffffffffffffffff16815260200191505060405180910390f35b3480156103a057600080fd5b506103a9610679565b6040518082815260200191505060405180910390f35b3480156103cb57600080fd5b506103d461067f565b6040518082815260200191505060405180910390f35b3480156103f657600080fd5b506103ff610685565b6040518082815260200191505060405180910390f35b34801561042157600080fd5b5061042a61068b565b005b34801561043857600080fd5b5061047b6004803603602081101561044f57600080fd5b81019080803573ffffffffffffffffffffffffffffffffffffffff1690602001909291905050506108e5565b6040518082815260200191505060405180910390f35b34801561049d57600080fd5b506104a66108fd565b604051808273ffffffffffffffffffffffffffffffffffffffff1673ffffffffffffffffffffffffffffffffffffffff16815260200191505060405180910390f35b3480156104f457600080fd5b506105216004803603602081101561050b57600080fd5b8101908080359060200190929190505050610922565b005b34801561052f57600080fd5b506105706004803603606081101561054657600080fd5b81019080803590602001909291908035906020019092919080359060200190929190505050610b47565b005b61059e6004803603602081101561058857600080fd5b8101908080359060200190929190505050610cba565b005b60035481565b60066020528060005260406000206000915054906101000a900460ff1681565b600260009054906101000a900460ff1681565b60056020528060005260406000206000915090505481565b60015481565b60088181548110151561060657fe5b906000526020600020016000915054906101000a900473ffffffffffffffffffffffffffffffffffffffff1681565b600c5481565b60098181548110151561064a57fe5b906000526020600020016000915054906101000a900473ffffffffffffffffffffffffffffffffffffffff1681565b600a5481565b600b5481565b600d5481565b600d544211151561069b57600080fd5b600060098054905090506000811115156106b457600080fd5b600061070182600754600143034060405160200180838152602001828152602001925050506040516020818303038152906040528051906020012060019004610e7890919063ffffffff16565b9050600060098281548110151561071457fe5b9060005260206000200160009054906101000a900473ffffffffffffffffffffffffffffffffffffffff169050600061076e600a3073ffffffffffffffffffffffffffffffffffffffff1631610e9d90919063ffffffff16565b90506000809054906101000a900473ffffffffffffffffffffffffffffffffffffffff1673ffffffffffffffffffffffffffffffffffffffff166108fc829081150290604051600060405180830381858888f193505050501580156107d7573d6000803e3d6000fd5b5060003073ffffffffffffffffffffffffffffffffffffffff163190508273ffffffffffffffffffffffffffffffffffffffff166108fc829081150290604051600060405180830381858888f1935050505015801561083a573d6000803e3d6000fd5b507fe41cfd88df8cce8ca96af2f5e1b05d2651619d97b87c3bdaa6fada5a8d5c64ec600154848385600b548a6003544203604051808881526020018773ffffffffffffffffffffffffffffffffffffffff1673ffffffffffffffffffffffffffffffffffffffff16815260200186815260200185815260200184815260200183815260200182815260200197505050505050505060405180910390a16108de610ec7565b5050505050565b60046020528060005260406000206000915090505481565b6000809054906101000a900473ffffffffffffffffffffffffffffffffffffffff1681565b600c54421180156109345750600d5442105b151561093f57600080fd5b600660003373ffffffffffffffffffffffffffffffffffffffff1673ffffffffffffffffffffffffffffffffffffffff16815260200190815260200160002060009054906101000a900460ff1615151561099857600080fd5b6000600460003373ffffffffffffffffffffffffffffffffffffffff1673ffffffffffffffffffffffffffffffffffffffff1681526020019081526020016000205490506000811115156109eb57600080fd5b816040516020018082815260200191505060405160208183030381529060405280519060200120600560003373ffffffffffffffffffffffffffffffffffffffff1673ffffffffffffffffffffffffffffffffffffffff16815260200190815260200160002054141515610a5e57600080fd5b81600754186007819055506001600660003373ffffffffffffffffffffffffffffffffffffffff1673ffffffffffffffffffffffffffffffffffffffff16815260200190815260200160002060006101000a81548160ff02191690831515021790555060008090505b81811015610b425760093390806001815401808255809150509060018203906000526020600020016000909192909190916101000a81548173ffffffffffffffffffffffffffffffffffffffff021916908373ffffffffffffffffffffffffffffffffffffffff160217905550508080600101915050610ac7565b505050565b600260009054906101000a900460ff16151515610b6357600080fd5b6000809054906101000a900473ffffffffffffffffffffffffffffffffffffffff1673ffffffffffffffffffffffffffffffffffffffff163373ffffffffffffffffffffffffffffffffffffffff16141515610bbe57600080fd5b600083111515610bcd57600080fd5b600082111515610bdc57600080fd5b818110151515610beb57600080fd5b60016000815480929190600101919050555082600a819055506000610c19834261117c90919063ffffffff16565b90506000610c30838361117c90919063ffffffff16565b905081600c8190555080600d81905550426003819055506001600260006101000a81548160ff0219169083151502179055507f71c15dd86c9da2e5b88fc823afd1510cc64bc45bb6e0c7f040fd0d4b8a558a4a6001548684846040518085815260200184815260200183815260200182815260200194505050505060405180910390a15050505050565b600c5442101515610cca57600080fd5b600a543410151515610cdb57600080fd5b6000600460003373ffffffffffffffffffffffffffffffffffffffff1673ffffffffffffffffffffffffffffffffffffffff1681526020019081526020016000205490506000811415610d6d5781600560003373ffffffffffffffffffffffffffffffffffffffff1673ffffffffffffffffffffffffffffffffffffffff168152602001908152602001600020819055505b6000610d84600a5434610e9d90919063ffffffff16565b90506000610d9d600a548361119d90919063ffffffff16565b905080341115610e01573373ffffffffffffffffffffffffffffffffffffffff166108fc610dd483346111db90919063ffffffff16565b9081150290604051600060405180830381858888f19350505050158015610dff573d6000803e3d6000fd5b505b610e14828461117c90919063ffffffff16565b600460003373ffffffffffffffffffffffffffffffffffffffff1673ffffffffffffffffffffffffffffffffffffffff16815260200190815260200160002081905550610e6c82600b5461117c90919063ffffffff16565b600b8190555050505050565b6000808214151515610e8957600080fd5b8183811515610e9457fe5b06905092915050565b60008082111515610ead57600080fd5b60008284811515610eba57fe5b0490508091505092915050565b600260009054906101000a900460ff161515610ee257600080fd5b60003073ffffffffffffffffffffffffffffffffffffffff1631141515610f0857600080fd5b600a60009055600b60009055600c60009055600d600090556007600090556000600880549050905060008090505b8181101561104c576000600882815481101515610f4f57fe5b9060005260206000200160009054906101000a900473ffffffffffffffffffffffffffffffffffffffff169050600882815481101515610f8b57fe5b9060005260206000200160006101000a81549073ffffffffffffffffffffffffffffffffffffffff0219169055600460008273ffffffffffffffffffffffffffffffffffffffff1673ffffffffffffffffffffffffffffffffffffffff16815260200190815260200160002060009055600560008273ffffffffffffffffffffffffffffffffffffffff1673ffffffffffffffffffffffffffffffffffffffff16815260200190815260200160002060009055508080600101915050610f36565b50600060088161105c91906111fd565b506000600980549050905060008090505b8181101561114c57600060098281548110151561108657fe5b9060005260206000200160009054906101000a900473ffffffffffffffffffffffffffffffffffffffff1690506009828154811015156110c257fe5b9060005260206000200160006101000a81549073ffffffffffffffffffffffffffffffffffffffff0219169055600660008273ffffffffffffffffffffffffffffffffffffffff1673ffffffffffffffffffffffffffffffffffffffff16815260200190815260200160002060006101000a81549060ff021916905550808060010191505061106d565b50600060098161115c91906111fd565b506000600260006101000a81548160ff0219169083151502179055505050565b600080828401905083811015151561119357600080fd5b8091505092915050565b6000808314156111b057600090506111d5565b600082840290508284828115156111c357fe5b041415156111d057600080fd5b809150505b92915050565b60008282111515156111ec57600080fd5b600082840390508091505092915050565b815481835581811115611224578183600052602060002091820191016112239190611229565b5b505050565b61124b91905b8082111561124757600081600090555060010161122f565b5090565b9056fea165627a7a7230582062f1389c4f2862aed159dc5239f1a9f0e9db053e20ea33b7a804d35eb6a035040029",
  "source": "pragma solidity ^0.5.2;\n\nimport \"./SafeMath.sol\";\n\ncontract Lottery {\n  using SafeMath for uint256;\n\n  event LotteryActivated(\n    uint256 lotteryID,\n    uint256 ticketPrice,\n    uint256 saleTimeout,\n    uint256 revealTimeout\n  );\n  event LotteryWon(\n    uint256 lotteryID,\n    address winner,\n    uint256 prize,\n    uint256 commission,\n    uint256 ticketsIssued,\n    uint256 numCandidates,\n    uint256 duration\n  );\n\n  address payable public _owner; //TODO: inherit from ownable.sol?\n\n  uint256 public _lotteryID;\n  bool public _active;\n  uint256 public _timeLastActivated;\n\n  mapping(address => uint256) public _ticketBalances;\n  mapping(address => bytes32) public _commitments;\n  mapping(address => bool) public _revealed;\n  uint256 private _xor;\n\n  address[] public _ticketHolders;\n  address[] public _candidates;\n\n  uint256 public _ticketPrice;\n  uint256 public _ticketsIssued;\n\n  uint256 public _saleTimeout;\n  uint256 public _revealTimeout;\n\n  constructor() public {\n    _owner = msg.sender;\n  }\n\n  modifier salePhase() {\n    require(now < _saleTimeout);\n    _;\n  }\n  modifier revealPhase() {\n    require(now > _saleTimeout && now < _revealTimeout);\n    _;\n  }\n  modifier payoutPhase() {\n    require(now > _revealTimeout);\n    _;\n  }\n  modifier inactive() {\n    require(!_active);\n    _;\n  }\n  modifier active() {\n    require(_active);\n    _;\n  }\n  modifier onlyOwner() {\n    require(msg.sender == _owner);\n    _;\n  }\n\n  function activate(\n    uint256 ticketPrice,\n    uint256 salePhaseDuration,\n    uint256 revealPhaseDuration\n  ) external inactive() onlyOwner() {\n    require(ticketPrice > 0);\n    require(salePhaseDuration > 0); // Should make this stricter, but we'll keep it as is for the purposes of the workshop.\n    require(revealPhaseDuration >= salePhaseDuration); // Reveal phase must be at least as long as sale phase.\n\n    _lotteryID++;\n    _ticketPrice = ticketPrice;\n    uint256 saleTimeout = now.add(salePhaseDuration); // TODO: Is this actually a gas optimization??\n    uint256 revealTimeout = saleTimeout.add(revealPhaseDuration);\n    _saleTimeout = saleTimeout;\n    _revealTimeout = revealTimeout;\n    _timeLastActivated = now;\n    _active = true;\n    emit LotteryActivated(_lotteryID, ticketPrice, saleTimeout, revealTimeout);\n  }\n\n  function buyTicket(bytes32 hashedSecret) external payable salePhase() {\n    require(msg.value >= _ticketPrice);\n\n    uint256 ticketBalance = _ticketBalances[msg.sender]; // Gas optimization.\n\n    // hashedSecret only committed on first ticket purchase.\n    if (ticketBalance == 0) {\n      _commitments[msg.sender] = hashedSecret;\n    }\n\n    uint256 numPurchased = msg.value.div(_ticketPrice);\n    uint256 spentWei = numPurchased.mul(_ticketPrice);\n    if (msg.value > spentWei) { // Return any unused wei.\n      msg.sender.transfer(msg.value.sub(spentWei));\n    }\n\n    _ticketBalances[msg.sender] = ticketBalance.add(numPurchased);\n    _ticketsIssued = _ticketsIssued.add(numPurchased);\n  }\n\n  function reveal(uint256 secret) external revealPhase() {\n    require(!_revealed[msg.sender]);\n    uint256 ticketBalance = _ticketBalances[msg.sender]; // Gas optimization.\n    require(ticketBalance > 0);\n\n    // Verify secret.\n    require(_commitments[msg.sender] == keccak256(abi.encodePacked(secret)));\n\n    _xor = _xor ^ secret;\n    _revealed[msg.sender] = true;\n    for (uint256 i = 0; i < ticketBalance; i++) { // Ticket price will have to be high enough to protect this loop.\n      _candidates.push(msg.sender);\n    }\n  }\n\n  function findWinner() public payoutPhase() {\n    uint256 numCandidates = _candidates.length; // Gas optimization.\n    require(numCandidates > 0);\n\n    uint256 winningIndex = uint256(\n      keccak256(abi.encodePacked(_xor, blockhash(block.number-1)))\n    ).mod(numCandidates);\n\n    address payable winner = address(uint160(_candidates[winningIndex]));\n    uint256 commission = address(this).balance.div(10); // Owner takes 10%\n    _owner.transfer(commission);\n    uint256 prize = address(this).balance;\n    winner.transfer(prize);\n\n    emit LotteryWon(\n      _lotteryID,\n      winner,\n      prize,\n      commission,\n      _ticketsIssued,\n      numCandidates,\n      now - _timeLastActivated\n    );\n\n    deactivate();\n  }\n\n  function deactivate() internal active() {\n    require(address(this).balance == 0);\n\n    delete(_ticketPrice);\n    delete(_ticketsIssued);\n    delete(_saleTimeout);\n    delete(_revealTimeout);\n    delete(_xor);\n\n    uint256 numTicketHolders = _ticketHolders.length;\n    for(uint256 i = 0; i < numTicketHolders; i++) {\n      address ticketHolder = _ticketHolders[i];\n      delete(_ticketHolders[i]);\n      delete(_ticketBalances[ticketHolder]);\n      delete(_commitments[ticketHolder]);\n    }\n    _ticketHolders.length = 0;\n\n    uint256 numCandidates = _candidates.length;\n    for(uint256 n = 0; n < numCandidates; n++) {\n      address candidate = _candidates[n];\n      delete(_candidates[n]);\n      delete(_revealed[candidate]);\n    }\n    _candidates.length = 0;\n\n    _active = false;\n\n    //TODO : Should we do this using lotteryID? The above method may cost too much gas.\n\n  }\n\n}\n",
  "sourcePath": "/Users/arvindyalavarti/dev/Ethereum/SolidityWorkshop/contracts/Lottery.sol",
  "compiler": {
    "name": "solc",
    "version": "0.5.2+commit.1df8f40c.Emscripten.clang"
  },
  "schemaVersion": "3.0.5",
  "updatedAt": "2019-04-05T06:35:41.097Z",
  "devdoc": {
    "methods": {}
  },
  "userdoc": {
    "methods": {}
  }
}