{
  "contractName": "Lottery",
  "abi": [
    {
      "constant": true,
      "inputs": [],
      "name": "_lotteryTimeout",
      "outputs": [
        {
          "name": "",
          "type": "uint256"
        }
      ],
      "payable": false,
      "stateMutability": "view",
      "type": "function",
      "signature": "0x2d8268cc"
    },
    {
      "constant": true,
      "inputs": [
        {
          "name": "",
          "type": "address"
        }
      ],
      "name": "_revealed",
      "outputs": [
        {
          "name": "",
          "type": "bool"
        }
      ],
      "payable": false,
      "stateMutability": "view",
      "type": "function",
      "signature": "0x4d388d06"
    },
    {
      "constant": true,
      "inputs": [
        {
          "name": "",
          "type": "address"
        }
      ],
      "name": "_commitments",
      "outputs": [
        {
          "name": "",
          "type": "bytes32"
        }
      ],
      "payable": false,
      "stateMutability": "view",
      "type": "function",
      "signature": "0x4dbe3469"
    },
    {
      "constant": true,
      "inputs": [],
      "name": "_saleTimeout",
      "outputs": [
        {
          "name": "",
          "type": "uint256"
        }
      ],
      "payable": false,
      "stateMutability": "view",
      "type": "function",
      "signature": "0x60e782bb"
    },
    {
      "constant": true,
      "inputs": [
        {
          "name": "",
          "type": "uint256"
        }
      ],
      "name": "_candidates",
      "outputs": [
        {
          "name": "",
          "type": "address"
        }
      ],
      "payable": false,
      "stateMutability": "view",
      "type": "function",
      "signature": "0x648a305a"
    },
    {
      "constant": true,
      "inputs": [],
      "name": "_ticketPrice",
      "outputs": [
        {
          "name": "",
          "type": "uint256"
        }
      ],
      "payable": false,
      "stateMutability": "view",
      "type": "function",
      "signature": "0x7e40be66"
    },
    {
      "constant": true,
      "inputs": [],
      "name": "_ticketsIssued",
      "outputs": [
        {
          "name": "",
          "type": "uint256"
        }
      ],
      "payable": false,
      "stateMutability": "view",
      "type": "function",
      "signature": "0x826dc28f"
    },
    {
      "constant": true,
      "inputs": [
        {
          "name": "",
          "type": "address"
        }
      ],
      "name": "_ticketBalances",
      "outputs": [
        {
          "name": "",
          "type": "uint256"
        }
      ],
      "payable": false,
      "stateMutability": "view",
      "type": "function",
      "signature": "0xa8381423"
    },
    {
      "inputs": [
        {
          "name": "ticketPrice",
          "type": "uint256"
        },
        {
          "name": "saleDuration",
          "type": "uint256"
        },
        {
          "name": "lotteryDuration",
          "type": "uint256"
        }
      ],
      "payable": false,
      "stateMutability": "nonpayable",
      "type": "constructor",
      "signature": "constructor"
    },
    {
      "anonymous": false,
      "inputs": [
        {
          "indexed": false,
          "name": "winner",
          "type": "address"
        },
        {
          "indexed": false,
          "name": "prize",
          "type": "uint256"
        },
        {
          "indexed": false,
          "name": "ticketsIssued",
          "type": "uint256"
        }
      ],
      "name": "LotteryWon",
      "type": "event",
      "signature": "0xa87bed6ccaf5dd569c5a881130f4bc9c9b604a4909d2982cffe0f37caca6db47"
    },
    {
      "constant": false,
      "inputs": [
        {
          "name": "hashedSecret",
          "type": "bytes32"
        }
      ],
      "name": "buyTicket",
      "outputs": [],
      "payable": true,
      "stateMutability": "payable",
      "type": "function",
      "signature": "0xe5423274"
    },
    {
      "constant": false,
      "inputs": [
        {
          "name": "secret",
          "type": "uint256"
        }
      ],
      "name": "reveal",
      "outputs": [],
      "payable": false,
      "stateMutability": "nonpayable",
      "type": "function",
      "signature": "0xc2ca0ac5"
    },
    {
      "constant": false,
      "inputs": [],
      "name": "findWinner",
      "outputs": [],
      "payable": false,
      "stateMutability": "nonpayable",
      "type": "function",
      "signature": "0x8e71decb"
    }
  ],
  "bytecode": "0x608060405234801561001057600080fd5b50604051606080610b858339810180604052606081101561003057600080fd5b8101908080519060200190929190805190602001909291908051906020019092919050505060008311151561006457600080fd5b60008211151561007357600080fd5b6100946002836100c3640100000000026109c8179091906401000000009004565b81101515156100a257600080fd5b82600581905550814201600781905550804201600881905550505050610101565b6000808314156100d657600090506100fb565b600082840290508284828115156100e957fe5b041415156100f657600080fd5b809150505b92915050565b610a75806101106000396000f3fe6080604052600436106100b9576000357c0100000000000000000000000000000000000000000000000000000000900480637e40be66116100815780637e40be661461025d578063826dc28f146102885780638e71decb146102b3578063a8381423146102ca578063c2ca0ac51461032f578063e54232741461036a576100b9565b80632d8268cc146100be5780634d388d06146100e95780634dbe34691461015257806360e782bb146101b7578063648a305a146101e2575b600080fd5b3480156100ca57600080fd5b506100d3610398565b6040518082815260200191505060405180910390f35b3480156100f557600080fd5b506101386004803603602081101561010c57600080fd5b81019080803573ffffffffffffffffffffffffffffffffffffffff16906020019092919050505061039e565b604051808215151515815260200191505060405180910390f35b34801561015e57600080fd5b506101a16004803603602081101561017557600080fd5b81019080803573ffffffffffffffffffffffffffffffffffffffff1690602001909291905050506103be565b6040518082815260200191505060405180910390f35b3480156101c357600080fd5b506101cc6103d6565b6040518082815260200191505060405180910390f35b3480156101ee57600080fd5b5061021b6004803603602081101561020557600080fd5b81019080803590602001909291905050506103dc565b604051808273ffffffffffffffffffffffffffffffffffffffff1673ffffffffffffffffffffffffffffffffffffffff16815260200191505060405180910390f35b34801561026957600080fd5b5061027261041a565b6040518082815260200191505060405180910390f35b34801561029457600080fd5b5061029d610420565b6040518082815260200191505060405180910390f35b3480156102bf57600080fd5b506102c8610426565b005b3480156102d657600080fd5b50610319600480360360208110156102ed57600080fd5b81019080803573ffffffffffffffffffffffffffffffffffffffff169060200190929190505050610581565b6040518082815260200191505060405180910390f35b34801561033b57600080fd5b506103686004803603602081101561035257600080fd5b8101908080359060200190929190505050610599565b005b6103966004803603602081101561038057600080fd5b81019080803590602001909291905050506107bd565b005b60085481565b60026020528060005260406000206000915054906101000a900460ff1681565b60016020528060005260406000206000915090505481565b60075481565b6004818154811015156103eb57fe5b906000526020600020016000915054906101000a900473ffffffffffffffffffffffffffffffffffffffff1681565b60055481565b60065481565b6008544211151561043657600080fd5b6000600480549050905060008111151561044f57600080fd5b600061049c8260035460014303406040516020018083815260200182815260200192505050604051602081830303815290604052805190602001206001900461097990919063ffffffff16565b905060006004828154811015156104af57fe5b9060005260206000200160009054906101000a900473ffffffffffffffffffffffffffffffffffffffff1690507fa87bed6ccaf5dd569c5a881130f4bc9c9b604a4909d2982cffe0f37caca6db47813073ffffffffffffffffffffffffffffffffffffffff1631600654604051808473ffffffffffffffffffffffffffffffffffffffff1673ffffffffffffffffffffffffffffffffffffffff168152602001838152602001828152602001935050505060405180910390a18073ffffffffffffffffffffffffffffffffffffffff16ff5b60006020528060005260406000206000915090505481565b600754421180156105ab575060085442105b15156105b657600080fd5b600260003373ffffffffffffffffffffffffffffffffffffffff1673ffffffffffffffffffffffffffffffffffffffff16815260200190815260200160002060009054906101000a900460ff1615151561060f57600080fd5b60008060003373ffffffffffffffffffffffffffffffffffffffff1673ffffffffffffffffffffffffffffffffffffffff16815260200190815260200160002054905060008111151561066157600080fd5b816040516020018082815260200191505060405160208183030381529060405280519060200120600160003373ffffffffffffffffffffffffffffffffffffffff1673ffffffffffffffffffffffffffffffffffffffff168152602001908152602001600020541415156106d457600080fd5b81600354186003819055506001600260003373ffffffffffffffffffffffffffffffffffffffff1673ffffffffffffffffffffffffffffffffffffffff16815260200190815260200160002060006101000a81548160ff02191690831515021790555060008090505b818110156107b85760043390806001815401808255809150509060018203906000526020600020016000909192909190916101000a81548173ffffffffffffffffffffffffffffffffffffffff021916908373ffffffffffffffffffffffffffffffffffffffff16021790555050808060010191505061073d565b505050565b600754421015156107cd57600080fd5b60055434101515156107de57600080fd5b60008060003373ffffffffffffffffffffffffffffffffffffffff1673ffffffffffffffffffffffffffffffffffffffff168152602001908152602001600020549050600081141561086f5781600160003373ffffffffffffffffffffffffffffffffffffffff1673ffffffffffffffffffffffffffffffffffffffff168152602001908152602001600020819055505b60006108866005543461099e90919063ffffffff16565b9050600061089f600554836109c890919063ffffffff16565b905080341115610903573373ffffffffffffffffffffffffffffffffffffffff166108fc6108d68334610a0690919063ffffffff16565b9081150290604051600060405180830381858888f19350505050158015610901573d6000803e3d6000fd5b505b6109168284610a2890919063ffffffff16565b6000803373ffffffffffffffffffffffffffffffffffffffff1673ffffffffffffffffffffffffffffffffffffffff1681526020019081526020016000208190555061096d82600654610a2890919063ffffffff16565b60068190555050505050565b600080821415151561098a57600080fd5b818381151561099557fe5b06905092915050565b600080821115156109ae57600080fd5b600082848115156109bb57fe5b0490508091505092915050565b6000808314156109db5760009050610a00565b600082840290508284828115156109ee57fe5b041415156109fb57600080fd5b809150505b92915050565b6000828211151515610a1757600080fd5b600082840390508091505092915050565b6000808284019050838110151515610a3f57600080fd5b809150509291505056fea165627a7a72305820140cac45bbdc4b1ac9b55eaaea601a43f39b258de5e053290c8cb594955148220029",
  "source": "pragma solidity ^0.5.2;\nimport \"./SafeMath.sol\";\n\ncontract Lottery {\n  using SafeMath for uint256;\n\n  event LotteryWon(address winner, uint256 prize, uint256 ticketsIssued);\n\n  mapping(address => uint256) public _ticketBalances;\n  mapping(address => bytes32) public _commitments;\n  mapping(address => bool) public _revealed;\n  uint256 private _xor;\n  address[] public _candidates;\n\n  uint256 public _ticketPrice;\n  uint256 public _ticketsIssued;\n\n  uint256 public _saleTimeout;\n  uint256 public _lotteryTimeout;\n\n  constructor (\n    uint256 ticketPrice,\n    uint256 saleDuration,\n    uint256 lotteryDuration\n  ) public {\n    require(ticketPrice > 0);\n    require(saleDuration > 0); // Should make this stricter, but we'll keep it as is for the purposes of the workshop.\n    require(lotteryDuration >= saleDuration.mul(2)); // Reveal phase must be at least as long as sale phase.\n\n    _ticketPrice = ticketPrice;\n    _saleTimeout = now + saleDuration;\n    _lotteryTimeout = now + lotteryDuration;\n  }\n\n  modifier salePhase() {\n    require(now < _saleTimeout);\n    _;\n  }\n  modifier revealPhase() {\n    require(now > _saleTimeout && now < _lotteryTimeout);\n    _;\n  }\n  modifier payoutPhase() {\n    require(now > _lotteryTimeout);\n    _;\n  }\n\n  function buyTicket(bytes32 hashedSecret) external payable salePhase() {\n    require(msg.value >= _ticketPrice);\n\n    uint256 ticketBalance = _ticketBalances[msg.sender]; // Gas optimization.\n\n    // hashedSecret only committed on first ticket purchase.\n    if (ticketBalance == 0) {\n      _commitments[msg.sender] = hashedSecret;\n    }\n\n    uint256 numPurchased = msg.value.div(_ticketPrice);\n    uint256 spentWei = numPurchased.mul(_ticketPrice);\n    if (msg.value > spentWei) { // Return any unused wei.\n      msg.sender.transfer(msg.value.sub(spentWei));\n    }\n\n    _ticketBalances[msg.sender] = ticketBalance.add(numPurchased);\n    _ticketsIssued = _ticketsIssued.add(numPurchased);\n  }\n\n  function reveal(uint256 secret) external revealPhase() {\n    require(!_revealed[msg.sender]);\n    uint256 ticketBalance = _ticketBalances[msg.sender]; // Gas optimization.\n    require(ticketBalance > 0);\n\n    // Verify secret.\n    require(_commitments[msg.sender] == keccak256(abi.encodePacked(secret)));\n\n    _xor = _xor ^ secret;\n    _revealed[msg.sender] = true;\n    for (uint256 i = 0; i < ticketBalance; i++) { // Ticket price will have to be high enough to protect this loop.\n      _candidates.push(msg.sender);\n    }\n  }\n\n  function findWinner() public payoutPhase() {\n    uint256 numCandidates = _candidates.length; // Gas optimization.\n    require(numCandidates > 0);\n\n    uint256 winningIndex = uint256(\n      keccak256(abi.encodePacked(_xor, blockhash(block.number-1)))\n    ).mod(numCandidates);\n\n    address payable winner = address(uint160(_candidates[winningIndex]));\n    emit LotteryWon(winner, address(this).balance, _ticketsIssued);\n    selfdestruct(winner); // Destroys this contract and sends balance to winner.\n  }\n\n}\n",
  "sourcePath": "/Users/arvindyalavarti/dev/Ethereum/SolidityWorkshop/contracts/Lottery.sol",
  "compiler": {
    "name": "solc",
    "version": "0.5.2+commit.1df8f40c.Emscripten.clang"
  },
  "schemaVersion": "3.0.5",
  "updatedAt": "2019-03-30T02:43:08.289Z",
  "devdoc": {
    "methods": {}
  },
  "userdoc": {
    "methods": {}
  }
}